{
  "_format": "hh-sol-artifact-1",
  "contractName": "NexolPayVault",
  "sourceName": "contracts/NexolPayVault.sol",
  "abi": [
    {
      "inputs": [
        {
          "internalType": "contract IERC20",
          "name": "_usdc",
          "type": "address"
        }
      ],
      "stateMutability": "nonpayable",
      "type": "constructor"
    },
    {
      "inputs": [
        {
          "internalType": "address",
          "name": "spender",
          "type": "address"
        },
        {
          "internalType": "uint256",
          "name": "allowance",
          "type": "uint256"
        },
        {
          "internalType": "uint256",
          "name": "needed",
          "type": "uint256"
        }
      ],
      "name": "ERC20InsufficientAllowance",
      "type": "error"
    },
    {
      "inputs": [
        {
          "internalType": "address",
          "name": "sender",
          "type": "address"
        },
        {
          "internalType": "uint256",
          "name": "balance",
          "type": "uint256"
        },
        {
          "internalType": "uint256",
          "name": "needed",
          "type": "uint256"
        }
      ],
      "name": "ERC20InsufficientBalance",
      "type": "error"
    },
    {
      "inputs": [
        {
          "internalType": "address",
          "name": "approver",
          "type": "address"
        }
      ],
      "name": "ERC20InvalidApprover",
      "type": "error"
    },
    {
      "inputs": [
        {
          "internalType": "address",
          "name": "receiver",
          "type": "address"
        }
      ],
      "name": "ERC20InvalidReceiver",
      "type": "error"
    },
    {
      "inputs": [
        {
          "internalType": "address",
          "name": "sender",
          "type": "address"
        }
      ],
      "name": "ERC20InvalidSender",
      "type": "error"
    },
    {
      "inputs": [
        {
          "internalType": "address",
          "name": "spender",
          "type": "address"
        }
      ],
      "name": "ERC20InvalidSpender",
      "type": "error"
    },
    {
      "inputs": [
        {
          "internalType": "address",
          "name": "receiver",
          "type": "address"
        },
        {
          "internalType": "uint256",
          "name": "assets",
          "type": "uint256"
        },
        {
          "internalType": "uint256",
          "name": "max",
          "type": "uint256"
        }
      ],
      "name": "ERC4626ExceededMaxDeposit",
      "type": "error"
    },
    {
      "inputs": [
        {
          "internalType": "address",
          "name": "receiver",
          "type": "address"
        },
        {
          "internalType": "uint256",
          "name": "shares",
          "type": "uint256"
        },
        {
          "internalType": "uint256",
          "name": "max",
          "type": "uint256"
        }
      ],
      "name": "ERC4626ExceededMaxMint",
      "type": "error"
    },
    {
      "inputs": [
        {
          "internalType": "address",
          "name": "owner",
          "type": "address"
        },
        {
          "internalType": "uint256",
          "name": "shares",
          "type": "uint256"
        },
        {
          "internalType": "uint256",
          "name": "max",
          "type": "uint256"
        }
      ],
      "name": "ERC4626ExceededMaxRedeem",
      "type": "error"
    },
    {
      "inputs": [
        {
          "internalType": "address",
          "name": "owner",
          "type": "address"
        },
        {
          "internalType": "uint256",
          "name": "assets",
          "type": "uint256"
        },
        {
          "internalType": "uint256",
          "name": "max",
          "type": "uint256"
        }
      ],
      "name": "ERC4626ExceededMaxWithdraw",
      "type": "error"
    },
    {
      "inputs": [
        {
          "internalType": "address",
          "name": "owner",
          "type": "address"
        }
      ],
      "name": "OwnableInvalidOwner",
      "type": "error"
    },
    {
      "inputs": [
        {
          "internalType": "address",
          "name": "account",
          "type": "address"
        }
      ],
      "name": "OwnableUnauthorizedAccount",
      "type": "error"
    },
    {
      "inputs": [],
      "name": "ReentrancyGuardReentrantCall",
      "type": "error"
    },
    {
      "inputs": [
        {
          "internalType": "address",
          "name": "token",
          "type": "address"
        }
      ],
      "name": "SafeERC20FailedOperation",
      "type": "error"
    },
    {
      "anonymous": false,
      "inputs": [
        {
          "indexed": true,
          "internalType": "address",
          "name": "owner",
          "type": "address"
        },
        {
          "indexed": true,
          "internalType": "address",
          "name": "spender",
          "type": "address"
        },
        {
          "indexed": false,
          "internalType": "uint256",
          "name": "value",
          "type": "uint256"
        }
      ],
      "name": "Approval",
      "type": "event"
    },
    {
      "anonymous": false,
      "inputs": [
        {
          "indexed": true,
          "internalType": "address",
          "name": "sender",
          "type": "address"
        },
        {
          "indexed": true,
          "internalType": "address",
          "name": "owner",
          "type": "address"
        },
        {
          "indexed": false,
          "internalType": "uint256",
          "name": "assets",
          "type": "uint256"
        },
        {
          "indexed": false,
          "internalType": "uint256",
          "name": "shares",
          "type": "uint256"
        }
      ],
      "name": "Deposit",
      "type": "event"
    },
    {
      "anonymous": false,
      "inputs": [
        {
          "indexed": true,
          "internalType": "address",
          "name": "user",
          "type": "address"
        },
        {
          "indexed": false,
          "internalType": "uint256",
          "name": "amount",
          "type": "uint256"
        },
        {
          "indexed": false,
          "internalType": "enum NexolPayVault.LockDuration",
          "name": "duration",
          "type": "uint8"
        },
        {
          "indexed": false,
          "internalType": "uint256",
          "name": "unlockAt",
          "type": "uint256"
        }
      ],
      "name": "Locked",
      "type": "event"
    },
    {
      "anonymous": false,
      "inputs": [
        {
          "indexed": true,
          "internalType": "address",
          "name": "previousOwner",
          "type": "address"
        },
        {
          "indexed": true,
          "internalType": "address",
          "name": "newOwner",
          "type": "address"
        }
      ],
      "name": "OwnershipTransferred",
      "type": "event"
    },
    {
      "anonymous": false,
      "inputs": [
        {
          "indexed": true,
          "internalType": "address",
          "name": "from",
          "type": "address"
        },
        {
          "indexed": true,
          "internalType": "address",
          "name": "to",
          "type": "address"
        },
        {
          "indexed": false,
          "internalType": "uint256",
          "name": "value",
          "type": "uint256"
        }
      ],
      "name": "Transfer",
      "type": "event"
    },
    {
      "anonymous": false,
      "inputs": [
        {
          "indexed": true,
          "internalType": "address",
          "name": "user",
          "type": "address"
        },
        {
          "indexed": false,
          "internalType": "uint256",
          "name": "depositIndex",
          "type": "uint256"
        },
        {
          "indexed": false,
          "internalType": "uint256",
          "name": "principal",
          "type": "uint256"
        },
        {
          "indexed": false,
          "internalType": "uint256",
          "name": "yield_",
          "type": "uint256"
        }
      ],
      "name": "Unlocked",
      "type": "event"
    },
    {
      "anonymous": false,
      "inputs": [
        {
          "indexed": true,
          "internalType": "address",
          "name": "sender",
          "type": "address"
        },
        {
          "indexed": true,
          "internalType": "address",
          "name": "receiver",
          "type": "address"
        },
        {
          "indexed": true,
          "internalType": "address",
          "name": "owner",
          "type": "address"
        },
        {
          "indexed": false,
          "internalType": "uint256",
          "name": "assets",
          "type": "uint256"
        },
        {
          "indexed": false,
          "internalType": "uint256",
          "name": "shares",
          "type": "uint256"
        }
      ],
      "name": "Withdraw",
      "type": "event"
    },
    {
      "inputs": [],
      "name": "APY_12_MONTH",
      "outputs": [
        {
          "internalType": "uint256",
          "name": "",
          "type": "uint256"
        }
      ],
      "stateMutability": "view",
      "type": "function"
    },
    {
      "inputs": [],
      "name": "APY_6_MONTH",
      "outputs": [
        {
          "internalType": "uint256",
          "name": "",
          "type": "uint256"
        }
      ],
      "stateMutability": "view",
      "type": "function"
    },
    {
      "inputs": [],
      "name": "BASIS_POINTS",
      "outputs": [
        {
          "internalType": "uint256",
          "name": "",
          "type": "uint256"
        }
      ],
      "stateMutability": "view",
      "type": "function"
    },
    {
      "inputs": [],
      "name": "SIX_MONTHS",
      "outputs": [
        {
          "internalType": "uint256",
          "name": "",
          "type": "uint256"
        }
      ],
      "stateMutability": "view",
      "type": "function"
    },
    {
      "inputs": [],
      "name": "TWELVE_MONTHS",
      "outputs": [
        {
          "internalType": "uint256",
          "name": "",
          "type": "uint256"
        }
      ],
      "stateMutability": "view",
      "type": "function"
    },
    {
      "inputs": [
        {
          "internalType": "address",
          "name": "owner",
          "type": "address"
        },
        {
          "internalType": "address",
          "name": "spender",
          "type": "address"
        }
      ],
      "name": "allowance",
      "outputs": [
        {
          "internalType": "uint256",
          "name": "",
          "type": "uint256"
        }
      ],
      "stateMutability": "view",
      "type": "function"
    },
    {
      "inputs": [
        {
          "internalType": "address",
          "name": "spender",
          "type": "address"
        },
        {
          "internalType": "uint256",
          "name": "value",
          "type": "uint256"
        }
      ],
      "name": "approve",
      "outputs": [
        {
          "internalType": "bool",
          "name": "",
          "type": "bool"
        }
      ],
      "stateMutability": "nonpayable",
      "type": "function"
    },
    {
      "inputs": [],
      "name": "asset",
      "outputs": [
        {
          "internalType": "address",
          "name": "",
          "type": "address"
        }
      ],
      "stateMutability": "view",
      "type": "function"
    },
    {
      "inputs": [
        {
          "internalType": "address",
          "name": "account",
          "type": "address"
        }
      ],
      "name": "balanceOf",
      "outputs": [
        {
          "internalType": "uint256",
          "name": "",
          "type": "uint256"
        }
      ],
      "stateMutability": "view",
      "type": "function"
    },
    {
      "inputs": [
        {
          "internalType": "uint256",
          "name": "amount",
          "type": "uint256"
        },
        {
          "internalType": "enum NexolPayVault.LockDuration",
          "name": "duration",
          "type": "uint8"
        }
      ],
      "name": "calculateYield",
      "outputs": [
        {
          "internalType": "uint256",
          "name": "",
          "type": "uint256"
        }
      ],
      "stateMutability": "pure",
      "type": "function"
    },
    {
      "inputs": [
        {
          "internalType": "uint256",
          "name": "shares",
          "type": "uint256"
        }
      ],
      "name": "convertToAssets",
      "outputs": [
        {
          "internalType": "uint256",
          "name": "",
          "type": "uint256"
        }
      ],
      "stateMutability": "view",
      "type": "function"
    },
    {
      "inputs": [
        {
          "internalType": "uint256",
          "name": "assets",
          "type": "uint256"
        }
      ],
      "name": "convertToShares",
      "outputs": [
        {
          "internalType": "uint256",
          "name": "",
          "type": "uint256"
        }
      ],
      "stateMutability": "view",
      "type": "function"
    },
    {
      "inputs": [],
      "name": "decimals",
      "outputs": [
        {
          "internalType": "uint8",
          "name": "",
          "type": "uint8"
        }
      ],
      "stateMutability": "view",
      "type": "function"
    },
    {
      "inputs": [
        {
          "internalType": "uint256",
          "name": "assets",
          "type": "uint256"
        },
        {
          "internalType": "address",
          "name": "receiver",
          "type": "address"
        }
      ],
      "name": "deposit",
      "outputs": [
        {
          "internalType": "uint256",
          "name": "",
          "type": "uint256"
        }
      ],
      "stateMutability": "nonpayable",
      "type": "function"
    },
    {
      "inputs": [
        {
          "internalType": "address",
          "name": "",
          "type": "address"
        },
        {
          "internalType": "uint256",
          "name": "",
          "type": "uint256"
        }
      ],
      "name": "deposits",
      "outputs": [
        {
          "internalType": "uint256",
          "name": "amount",
          "type": "uint256"
        },
        {
          "internalType": "uint256",
          "name": "lockedAt",
          "type": "uint256"
        },
        {
          "internalType": "uint256",
          "name": "unlockAt",
          "type": "uint256"
        },
        {
          "internalType": "enum NexolPayVault.LockDuration",
          "name": "duration",
          "type": "uint8"
        },
        {
          "internalType": "bool",
          "name": "withdrawn",
          "type": "bool"
        }
      ],
      "stateMutability": "view",
      "type": "function"
    },
    {
      "inputs": [
        {
          "internalType": "uint256",
          "name": "amount",
          "type": "uint256"
        }
      ],
      "name": "fundYieldReserve",
      "outputs": [],
      "stateMutability": "nonpayable",
      "type": "function"
    },
    {
      "inputs": [
        {
          "internalType": "address",
          "name": "user",
          "type": "address"
        }
      ],
      "name": "getDepositCount",
      "outputs": [
        {
          "internalType": "uint256",
          "name": "",
          "type": "uint256"
        }
      ],
      "stateMutability": "view",
      "type": "function"
    },
    {
      "inputs": [
        {
          "internalType": "address",
          "name": "user",
          "type": "address"
        }
      ],
      "name": "getDeposits",
      "outputs": [
        {
          "components": [
            {
              "internalType": "uint256",
              "name": "amount",
              "type": "uint256"
            },
            {
              "internalType": "uint256",
              "name": "lockedAt",
              "type": "uint256"
            },
            {
              "internalType": "uint256",
              "name": "unlockAt",
              "type": "uint256"
            },
            {
              "internalType": "enum NexolPayVault.LockDuration",
              "name": "duration",
              "type": "uint8"
            },
            {
              "internalType": "bool",
              "name": "withdrawn",
              "type": "bool"
            }
          ],
          "internalType": "struct NexolPayVault.VaultDeposit[]",
          "name": "",
          "type": "tuple[]"
        }
      ],
      "stateMutability": "view",
      "type": "function"
    },
    {
      "inputs": [
        {
          "internalType": "uint256",
          "name": "amount",
          "type": "uint256"
        },
        {
          "internalType": "enum NexolPayVault.LockDuration",
          "name": "duration",
          "type": "uint8"
        }
      ],
      "name": "lockDeposit",
      "outputs": [],
      "stateMutability": "nonpayable",
      "type": "function"
    },
    {
      "inputs": [
        {
          "internalType": "address",
          "name": "",
          "type": "address"
        }
      ],
      "name": "maxDeposit",
      "outputs": [
        {
          "internalType": "uint256",
          "name": "",
          "type": "uint256"
        }
      ],
      "stateMutability": "view",
      "type": "function"
    },
    {
      "inputs": [
        {
          "internalType": "address",
          "name": "",
          "type": "address"
        }
      ],
      "name": "maxMint",
      "outputs": [
        {
          "internalType": "uint256",
          "name": "",
          "type": "uint256"
        }
      ],
      "stateMutability": "view",
      "type": "function"
    },
    {
      "inputs": [
        {
          "internalType": "address",
          "name": "owner",
          "type": "address"
        }
      ],
      "name": "maxRedeem",
      "outputs": [
        {
          "internalType": "uint256",
          "name": "",
          "type": "uint256"
        }
      ],
      "stateMutability": "view",
      "type": "function"
    },
    {
      "inputs": [
        {
          "internalType": "address",
          "name": "owner",
          "type": "address"
        }
      ],
      "name": "maxWithdraw",
      "outputs": [
        {
          "internalType": "uint256",
          "name": "",
          "type": "uint256"
        }
      ],
      "stateMutability": "view",
      "type": "function"
    },
    {
      "inputs": [
        {
          "internalType": "uint256",
          "name": "shares",
          "type": "uint256"
        },
        {
          "internalType": "address",
          "name": "receiver",
          "type": "address"
        }
      ],
      "name": "mint",
      "outputs": [
        {
          "internalType": "uint256",
          "name": "",
          "type": "uint256"
        }
      ],
      "stateMutability": "nonpayable",
      "type": "function"
    },
    {
      "inputs": [],
      "name": "name",
      "outputs": [
        {
          "internalType": "string",
          "name": "",
          "type": "string"
        }
      ],
      "stateMutability": "view",
      "type": "function"
    },
    {
      "inputs": [],
      "name": "owner",
      "outputs": [
        {
          "internalType": "address",
          "name": "",
          "type": "address"
        }
      ],
      "stateMutability": "view",
      "type": "function"
    },
    {
      "inputs": [
        {
          "internalType": "uint256",
          "name": "assets",
          "type": "uint256"
        }
      ],
      "name": "previewDeposit",
      "outputs": [
        {
          "internalType": "uint256",
          "name": "",
          "type": "uint256"
        }
      ],
      "stateMutability": "view",
      "type": "function"
    },
    {
      "inputs": [
        {
          "internalType": "uint256",
          "name": "shares",
          "type": "uint256"
        }
      ],
      "name": "previewMint",
      "outputs": [
        {
          "internalType": "uint256",
          "name": "",
          "type": "uint256"
        }
      ],
      "stateMutability": "view",
      "type": "function"
    },
    {
      "inputs": [
        {
          "internalType": "uint256",
          "name": "shares",
          "type": "uint256"
        }
      ],
      "name": "previewRedeem",
      "outputs": [
        {
          "internalType": "uint256",
          "name": "",
          "type": "uint256"
        }
      ],
      "stateMutability": "view",
      "type": "function"
    },
    {
      "inputs": [
        {
          "internalType": "uint256",
          "name": "assets",
          "type": "uint256"
        }
      ],
      "name": "previewWithdraw",
      "outputs": [
        {
          "internalType": "uint256",
          "name": "",
          "type": "uint256"
        }
      ],
      "stateMutability": "view",
      "type": "function"
    },
    {
      "inputs": [
        {
          "internalType": "uint256",
          "name": "shares",
          "type": "uint256"
        },
        {
          "internalType": "address",
          "name": "receiver",
          "type": "address"
        },
        {
          "internalType": "address",
          "name": "owner",
          "type": "address"
        }
      ],
      "name": "redeem",
      "outputs": [
        {
          "internalType": "uint256",
          "name": "",
          "type": "uint256"
        }
      ],
      "stateMutability": "nonpayable",
      "type": "function"
    },
    {
      "inputs": [],
      "name": "renounceOwnership",
      "outputs": [],
      "stateMutability": "nonpayable",
      "type": "function"
    },
    {
      "inputs": [],
      "name": "symbol",
      "outputs": [
        {
          "internalType": "string",
          "name": "",
          "type": "string"
        }
      ],
      "stateMutability": "view",
      "type": "function"
    },
    {
      "inputs": [],
      "name": "totalAssets",
      "outputs": [
        {
          "internalType": "uint256",
          "name": "",
          "type": "uint256"
        }
      ],
      "stateMutability": "view",
      "type": "function"
    },
    {
      "inputs": [],
      "name": "totalSupply",
      "outputs": [
        {
          "internalType": "uint256",
          "name": "",
          "type": "uint256"
        }
      ],
      "stateMutability": "view",
      "type": "function"
    },
    {
      "inputs": [
        {
          "internalType": "address",
          "name": "to",
          "type": "address"
        },
        {
          "internalType": "uint256",
          "name": "value",
          "type": "uint256"
        }
      ],
      "name": "transfer",
      "outputs": [
        {
          "internalType": "bool",
          "name": "",
          "type": "bool"
        }
      ],
      "stateMutability": "nonpayable",
      "type": "function"
    },
    {
      "inputs": [
        {
          "internalType": "address",
          "name": "from",
          "type": "address"
        },
        {
          "internalType": "address",
          "name": "to",
          "type": "address"
        },
        {
          "internalType": "uint256",
          "name": "value",
          "type": "uint256"
        }
      ],
      "name": "transferFrom",
      "outputs": [
        {
          "internalType": "bool",
          "name": "",
          "type": "bool"
        }
      ],
      "stateMutability": "nonpayable",
      "type": "function"
    },
    {
      "inputs": [
        {
          "internalType": "address",
          "name": "newOwner",
          "type": "address"
        }
      ],
      "name": "transferOwnership",
      "outputs": [],
      "stateMutability": "nonpayable",
      "type": "function"
    },
    {
      "inputs": [
        {
          "internalType": "uint256",
          "name": "index",
          "type": "uint256"
        }
      ],
      "name": "unlockDeposit",
      "outputs": [],
      "stateMutability": "nonpayable",
      "type": "function"
    },
    {
      "inputs": [
        {
          "internalType": "uint256",
          "name": "assets",
          "type": "uint256"
        },
        {
          "internalType": "address",
          "name": "receiver",
          "type": "address"
        },
        {
          "internalType": "address",
          "name": "owner",
          "type": "address"
        }
      ],
      "name": "withdraw",
      "outputs": [
        {
          "internalType": "uint256",
          "name": "",
          "type": "uint256"
        }
      ],
      "stateMutability": "nonpayable",
      "type": "function"
    }
  ],
  "bytecode": "0x60c060405234801561000f575f80fd5b506040516120d93803806120d983398101604081905261002e91610238565b33816040518060400160405280601481526020017f4e65786f6c506179205661756c74205368617265000000000000000000000000815250604051806040016040528060058152602001641b9e15931560da1b815250816003908161009391906102fd565b5060046100a082826102fd565b5050505f806100b48361013560201b60201c565b91509150816100c45760126100c6565b805b60ff1660a05250506001600160a01b03908116608052811661010157604051631e4fbdf760e01b81525f600482015260240160405180910390fd5b61010a816101c6565b5060017f9b779b17422d0df92223018b32b4d1fa46e071723d6817e2486d003becc55f0055506103b7565b5f808061014160405190565b6040805160048152602481019091526020810180516001600160e01b0390811663313ce56760e01b179091529192505f9182916101819188919061021716565b50909250905061019083604052565b81801561019e575060203d10155b80156101ab575060ff8111155b6101b6575f806101ba565b6001815b94509450505050915091565b600580546001600160a01b038381166001600160a01b0319831681179093556040519116919082907f8be0079c531659141344cd1fd0a4f28419497f9722a3daafe3b4186f6b6457e0905f90a35050565b5f805f60405f855160208701885afa92505f51915060205190509250925092565b5f60208284031215610248575f80fd5b81516001600160a01b038116811461025e575f80fd5b9392505050565b634e487b7160e01b5f52604160045260245ffd5b600181811c9082168061028d57607f821691505b6020821081036102ab57634e487b7160e01b5f52602260045260245ffd5b50919050565b601f8211156102f857805f5260205f20601f840160051c810160208510156102d65750805b601f840160051c820191505b818110156102f5575f81556001016102e2565b50505b505050565b81516001600160401b0381111561031657610316610265565b61032a816103248454610279565b846102b1565b6020601f82116001811461035c575f83156103455750848201515b5f19600385901b1c1916600184901b1784556102f5565b5f84815260208120601f198516915b8281101561038b578785015182556020948501946001909201910161036b565b50848210156103a857868401515f19600387901b60f8161c191681555b50505050600190811b01905550565b60805160a051611cd76104025f395f61093f01525f81816103390152818161056b01528181610674015281816109f501528181610c13015281816114af01526115430152611cd75ff3fe608060405234801561000f575f80fd5b506004361061023f575f3560e01c806377b9de8e11610135578063ba579c74116100b4578063d905777e11610079578063d905777e14610501578063dd62ed3e14610514578063e1f1c4a71461054c578063ef8b30f7146104b7578063f2fde38b14610555575f80fd5b8063ba579c74146104ad578063c63d75b614610384578063c6e6f592146104b7578063ce96cb77146104ca578063d6d68177146104dd575f80fd5b806395d89b41116100fa57806395d89b4114610459578063a9059cbb14610461578063b3d7f6b914610474578063b460af9414610487578063ba0876521461049a575f80fd5b806377b9de8e146103f75780637c4a485c1461040a5780638da5cb5b1461041557806394bf804d1461042657806394f649dd14610439575f80fd5b8063313ce567116101c15780634cdad506116101865780634cdad5061461028857806357a41d6d146103ab5780636e553f65146103b457806370a08231146103c7578063715018a6146103ef575f80fd5b8063313ce5671461031d57806338d52e0f146103375780633eaf670014610371578063402d267d1461038457806342c8bafa14610398575f80fd5b80630a28a477116102075780630a28a477146102be57806313fcaf54146102d157806318160ddd146102f95780631853304f1461030157806323b872dd1461030a575f80fd5b806301e1d11414610243578063031498531461025e57806306fdde031461027357806307a2d13a14610288578063095ea7b31461029b575b5f80fd5b61024b610568565b6040519081526020015b60405180910390f35b61027161026c3660046117ac565b6105f7565b005b61027b61084f565b60405161025591906117dd565b61024b610296366004611812565b6108df565b6102ae6102a9366004611844565b6108f0565b6040519015158152602001610255565b61024b6102cc366004611812565b610907565b61024b6102df36600461186c565b6001600160a01b03165f9081526006602052604090205490565b60025461024b565b61024b6101a481565b6102ae610318366004611885565b610913565b610325610938565b60405160ff9091168152602001610255565b7f00000000000000000000000000000000000000000000000000000000000000005b6040516001600160a01b039091168152602001610255565b61024b61037f3660046117ac565b610963565b61024b61039236600461186c565b505f1990565b6102716103a6366004611812565b6109eb565b61024b61026281565b61024b6103c23660046118bf565b610a8a565b61024b6103d536600461186c565b6001600160a01b03165f9081526020819052604090205490565b610271610aad565b610271610405366004611812565b610ac0565b61024b6301e1338081565b6005546001600160a01b0316610359565b61024b6104343660046118bf565b610d04565b61044c61044736600461186c565b610d1f565b604051610255919061191d565b61027b610dfc565b6102ae61046f366004611844565b610e0b565b61024b610482366004611812565b610e18565b61024b610495366004611997565b610e24565b61024b6104a8366004611997565b610e71565b61024b62ed4e0081565b61024b6104c5366004611812565b610ebe565b61024b6104d836600461186c565b610ec9565b6104f06104eb366004611844565b610ed6565b6040516102559594939291906119d0565b61024b61050f36600461186c565b610f24565b61024b610522366004611a04565b6001600160a01b039182165f90815260016020908152604080832093909416825291909152205490565b61024b61271081565b61027161056336600461186c565b610f41565b5f7f00000000000000000000000000000000000000000000000000000000000000006040516370a0823160e01b81523060048201526001600160a01b0391909116906370a0823190602401602060405180830381865afa1580156105ce573d5f803e3d5ffd5b505050506040513d601f19601f820116820180604052508101906105f29190611a2c565b905090565b6105ff610f7b565b5f82116106485760405162461bcd60e51b81526020600482015260126024820152710416d6f756e74206d757374206265203e20360741b60448201526064015b60405180910390fd5b5f8082600181111561065c5761065c6118e9565b1461066b576301e13380610670565b62ed4e005b90507f00000000000000000000000000000000000000000000000000000000000000006040516323b872dd60e01b8152336004820152306024820152604481018590526001600160a01b0391909116906323b872dd906064016020604051808303815f875af11580156106e5573d5f803e3d5ffd5b505050506040513d601f19601f820116820180604052508101906107099190611a43565b5060065f336001600160a01b03166001600160a01b031681526020019081526020015f206040518060a0016040528085815260200142815260200183426107509190611a76565b8152602001846001811115610767576107676118e9565b81525f60209182018190528354600181810186559482529082902083516004909202019081559082015181840155604082015160028201556060820151600382018054939492939192909160ff19169083818111156107c8576107c86118e9565b021790555060809190910151600390910180549115156101000261ff0019909216919091179055337f414f3f5afe1e46f0967de68ffb45c3e2af4ca88b344adc40480924f28313b231848461081d8542611a76565b60405161082c93929190611a89565b60405180910390a25061084b60015f80516020611c8283398151915255565b5050565b60606003805461085e90611aab565b80601f016020809104026020016040519081016040528092919081815260200182805461088a90611aab565b80156108d55780601f106108ac576101008083540402835291602001916108d5565b820191905f5260205f20905b8154815290600101906020018083116108b857829003601f168201915b5050505050905090565b5f6108ea825f610f96565b92915050565b5f336108fd818585610fce565b5060019392505050565b5f6108ea826001610fe0565b5f3361092085828561100f565b61092b858585611078565b60019150505b9392505050565b5f6105f2817f0000000000000000000000000000000000000000000000000000000000000000611ae3565b5f8080836001811115610978576109786118e9565b1461098557610262610989565b6101a45b90505f8084600181111561099f5761099f6118e9565b146109ac5761016d6109af565b60b45b61ffff1690506109c361271061016d611afc565b816109ce8488611afc565b6109d89190611afc565b6109e29190611b27565b95945050505050565b6109f36110d5565b7f00000000000000000000000000000000000000000000000000000000000000006040516323b872dd60e01b8152336004820152306024820152604481018390526001600160a01b0391909116906323b872dd906064016020604051808303815f875af1158015610a66573d5f803e3d5ffd5b505050506040513d601f19601f8201168201806040525081019061084b9190611a43565b5f5f195f610a9785610ebe565b9050610aa533858784611102565b949350505050565b610ab56110d5565b610abe5f611172565b565b610ac8610f7b565b335f908152600660205260409020548110610b155760405162461bcd60e51b815260206004820152600d60248201526c092dcecc2d8d2c840d2dcc8caf609b1b604482015260640161063f565b335f908152600660205260408120805483908110610b3557610b35611b5b565b905f5260205f20906004020190508060030160019054906101000a900460ff1615610b965760405162461bcd60e51b815260206004820152601160248201527020b63932b0b23c903bb4ba34323930bbb760791b604482015260640161063f565b8060020154421015610bd95760405162461bcd60e51b815260206004820152600c60248201526b14dd1a5b1b081b1bd8dad95960a21b604482015260640161063f565b60038101805461ff001981166101001790915581545f91610bfd919060ff16610963565b90505f81835f0154610c0f9190611a76565b90507f000000000000000000000000000000000000000000000000000000000000000060405163a9059cbb60e01b8152336004820152602481018390526001600160a01b03919091169063a9059cbb906044016020604051808303815f875af1158015610c7e573d5f803e3d5ffd5b505050506040513d601f19601f82011682018060405250810190610ca29190611a43565b508254604080518681526020810192909252810183905233907f5245d528087a96a64f4589a764f00061e4671eab90cb1e019b1a5b24b2e4c2a89060600160405180910390a2505050610d0160015f80516020611c8283398151915255565b50565b5f5f195f610d1185610e18565b9050610aa533858388611102565b6001600160a01b0381165f908152600660209081526040808320805482518185028101850190935280835260609492939192909184015b82821015610df1578382905f5260205f2090600402016040518060a00160405290815f82015481526020016001820154815260200160028201548152602001600382015f9054906101000a900460ff166001811115610db757610db76118e9565b6001811115610dc857610dc86118e9565b815260039190910154610100900460ff1615156020918201529082526001929092019101610d56565b505050509050919050565b60606004805461085e90611aab565b5f336108fd818585611078565b5f6108ea826001610f96565b5f80610e2f83610ec9565b905080851115610e5857828582604051633fa733bb60e21b815260040161063f93929190611b3a565b5f610e6286610907565b90506109e233868689856111c3565b5f80610e7c83610f24565b905080851115610ea557828582604051632e52afbb60e21b815260040161063f93929190611b3a565b5f610eaf866108df565b90506109e2338686848a6111c3565b5f6108ea825f610fe0565b5f6108ea61029683610f24565b6006602052815f5260405f208181548110610eef575f80fd5b5f9182526020909120600490910201805460018201546002830154600390930154919450925060ff8082169161010090041685565b6001600160a01b0381165f908152602081905260408120546108ea565b610f496110d5565b6001600160a01b038116610f7257604051631e4fbdf760e01b81525f600482015260240161063f565b610d0181611172565b610f83611262565b60025f80516020611c8283398151915255565b5f610931610fa2610568565b610fad906001611a76565b610fb85f600a611c52565b600254610fc59190611a76565b85919085611291565b610fdb83838360016112d3565b505050565b5f610931610fef82600a611c52565b600254610ffc9190611a76565b611004610568565b610fc5906001611a76565b6001600160a01b038381165f908152600160209081526040808320938616835292905220545f19811015611072578181101561106457828183604051637dc7a0d960e11b815260040161063f93929190611b3a565b61107284848484035f6112d3565b50505050565b6001600160a01b0383166110a157604051634b637e8f60e11b81525f600482015260240161063f565b6001600160a01b0382166110ca5760405163ec442f0560e01b81525f600482015260240161063f565b610fdb838383611397565b6005546001600160a01b03163314610abe5760405163118cdaa760e01b815233600482015260240161063f565b61110c84836114aa565b61111683826114d6565b826001600160a01b0316846001600160a01b03167fdcbc1c05240f31ff3ad067ef1ee35ce4997762752e3a095284754544f4c709d78484604051611164929190918252602082015260400190565b60405180910390a350505050565b600580546001600160a01b038381166001600160a01b0319831681179093556040519116919082907f8be0079c531659141344cd1fd0a4f28419497f9722a3daafe3b4186f6b6457e0905f90a35050565b826001600160a01b0316856001600160a01b0316146111e7576111e783868361100f565b6111f1838261150a565b6111fb848361153e565b826001600160a01b0316846001600160a01b0316866001600160a01b03167ffbde797d201c681b91056529119e0b02407c7bb96a4a2c75c01fc9667232c8db8585604051611253929190918252602082015260400190565b60405180910390a45050505050565b5f80516020611c8283398151915254600203610abe57604051633ee5aeb560e01b815260040160405180910390fd5b5f6112be61129e83611569565b80156112b957505f84806112b4576112b4611b13565b868809115b151590565b6112c9868686611595565b6109e29190611a76565b6001600160a01b0384166112fc5760405163e602df0560e01b81525f600482015260240161063f565b6001600160a01b03831661132557604051634a1406b160e11b81525f600482015260240161063f565b6001600160a01b038085165f908152600160209081526040808320938716835292905220829055801561107257826001600160a01b0316846001600160a01b03167f8c5be1e5ebec7d5bd14f71427d1e84f3dd0314c0f7b2291e5b200ac8c7c3b9258460405161116491815260200190565b6001600160a01b0383166113c1578060025f8282546113b69190611a76565b9091555061141e9050565b6001600160a01b0383165f90815260208190526040902054818110156114005783818360405163391434e360e21b815260040161063f93929190611b3a565b6001600160a01b0384165f9081526020819052604090209082900390555b6001600160a01b03821661143a57600280548290039055611458565b6001600160a01b0382165f9081526020819052604090208054820190555b816001600160a01b0316836001600160a01b03167fddf252ad1be2c89b69c2b068fc378daa952ba7f163c4a11628f55a4df523b3ef8360405161149d91815260200190565b60405180910390a3505050565b61084b7f0000000000000000000000000000000000000000000000000000000000000000833084611645565b6001600160a01b0382166114ff5760405163ec442f0560e01b81525f600482015260240161063f565b61084b5f8383611397565b6001600160a01b03821661153357604051634b637e8f60e11b81525f600482015260240161063f565b61084b825f83611397565b61084b7f0000000000000000000000000000000000000000000000000000000000000000838361167b565b5f600282600381111561157e5761157e6118e9565b6115889190611c60565b60ff166001149050919050565b5f805f6115a286866116b0565b91509150815f036115c6578381816115bc576115bc611b13565b0492505050610931565b8184116115dd576115dd60038515026011186116cc565b5f848688095f868103871696879004966002600389028118808a02820302808a02820302808a02820302808a02820302808a02820302808a02909103029181900381900460010185841190960395909502919093039390930492909217029150509392505050565b6116538484848460016116dd565b61107257604051635274afe760e01b81526001600160a01b038516600482015260240161063f565b611688838383600161174a565b610fdb57604051635274afe760e01b81526001600160a01b038416600482015260240161063f565b5f805f1983850993909202808410938190039390930393915050565b634e487b715f52806020526024601cfd5b6040516323b872dd60e01b5f8181526001600160a01b038781166004528616602452604485905291602083606481808c5af1925060015f5114831661173957838315161561172d573d5f823e3d81fd5b5f883b113d1516831692505b604052505f60605295945050505050565b60405163a9059cbb60e01b5f8181526001600160a01b038616600452602485905291602083604481808b5af1925060015f511483166117a0578383151615611794573d5f823e3d81fd5b5f873b113d1516831692505b60405250949350505050565b5f80604083850312156117bd575f80fd5b823591506020830135600281106117d2575f80fd5b809150509250929050565b602081525f82518060208401528060208501604085015e5f604082850101526040601f19601f83011684010191505092915050565b5f60208284031215611822575f80fd5b5035919050565b80356001600160a01b038116811461183f575f80fd5b919050565b5f8060408385031215611855575f80fd5b61185e83611829565b946020939093013593505050565b5f6020828403121561187c575f80fd5b61093182611829565b5f805f60608486031215611897575f80fd5b6118a084611829565b92506118ae60208501611829565b929592945050506040919091013590565b5f80604083850312156118d0575f80fd5b823591506118e060208401611829565b90509250929050565b634e487b7160e01b5f52602160045260245ffd5b6002811061191957634e487b7160e01b5f52602160045260245ffd5b9052565b602080825282518282018190525f918401906040840190835b8181101561198c578351805184526020810151602085015260408101516040850152606081015161196a60608601826118fd565b506080908101511515908401526020939093019260a090920191600101611936565b509095945050505050565b5f805f606084860312156119a9575f80fd5b833592506119b960208501611829565b91506119c760408501611829565b90509250925092565b858152602081018590526040810184905260a081016119f260608301856118fd565b82151560808301529695505050505050565b5f8060408385031215611a15575f80fd5b611a1e83611829565b91506118e060208401611829565b5f60208284031215611a3c575f80fd5b5051919050565b5f60208284031215611a53575f80fd5b81518015158114610931575f80fd5b634e487b7160e01b5f52601160045260245ffd5b808201808211156108ea576108ea611a62565b83815260608101611a9d60208301856118fd565b826040830152949350505050565b600181811c90821680611abf57607f821691505b602082108103611add57634e487b7160e01b5f52602260045260245ffd5b50919050565b60ff81811683821601908111156108ea576108ea611a62565b80820281158282048414176108ea576108ea611a62565b634e487b7160e01b5f52601260045260245ffd5b5f82611b3557611b35611b13565b500490565b6001600160a01b039390931683526020830191909152604082015260600190565b634e487b7160e01b5f52603260045260245ffd5b6001815b6001841115611baa57808504811115611b8e57611b8e611a62565b6001841615611b9c57908102905b60019390931c928002611b73565b935093915050565b5f82611bc0575060016108ea565b81611bcc57505f6108ea565b8160018114611be25760028114611bec57611c08565b60019150506108ea565b60ff841115611bfd57611bfd611a62565b50506001821b6108ea565b5060208310610133831016604e8410600b8410161715611c2b575081810a6108ea565b611c375f198484611b6f565b805f1904821115611c4a57611c4a611a62565b029392505050565b5f61093160ff841683611bb2565b5f60ff831680611c7257611c72611b13565b8060ff8416069150509291505056fe9b779b17422d0df92223018b32b4d1fa46e071723d6817e2486d003becc55f00a2646970667358221220aae8022ae296f47531651c29c8e75f20c40e2185f89944f6d501163534e61f5e64736f6c634300081a0033",
  "linkReferences": {},
  "deployedLinkReferences": {}
}